Practico 2
==========

Protocolo ARP
-------------

1) Ejemplos de `tcpdump -n arp`:

```
19:32:45.475485 ARP, Request who-has 192.168.15.19 tell 192.168.15.16, length 46
19:32:45.475512 ARP, Reply 192.168.15.19 is-at 40:8d:5c:2c:20:e1, length 28
```

2) Con el comando `tcpdump -e -n arp` podemos ver las diferencias entre las tramas de broadcast y las que no.

    Broadcast:
    ```
    19:36:01.799479 40:8d:5c:2c:20:ee > ff:ff:ff:ff:ff:ff, ethertype ARP (0x0806), length 60: Request who-has 192.168.15.1 tell 192.168.15.3, length 46
    ```

    Comun:
    ```
    19:36:06.810996 40:8d:5c:2c:20:e1 > 40:8d:5c:2a:8a:89, ethertype ARP (0x0806), length 42: Reply 192.168.15.19 is-at 40:8d:5c:2c:20:e1, length 28
    ```

3) Las tramas de forma nombres son mas "prolijas":

    Numerica `-n`:
    ```
    19:47:27.096481 ARP, Request who-has 192.168.15.5 tell 192.168.15.1, length 46
    ```

    Nombres `-e`:
    ```
    19:45:27.092889 00:e0:b1:92:4e:ec (oui Unknown) > Broadcast, ethertype ARP (0x0806), length 60: Request who-has 192.168.15.10 tell 192.168.15.1, length 46
    ```

4) `tcpdump -e -n arp host 192.168.15.19`:

    ```
    19:48:58.973092 40:8d:5c:2c:20:e1 > 40:8d:5c:2a:8a:89, ethertype ARP (0x0806), length 42: Request who-has 192.168.15.13 tell 192.168.15.19, length 28
    19:48:58.973198 40:8d:5c:2a:8a:89 > 40:8d:5c:2c:20:e1, ethertype ARP (0x0806), length 60: Reply 192.168.15.13 is-at 40:8d:5c:2a:8a:89, length 46
    ```

5) Los resultados de las tramas entrantes y salientes.

    `tcpdump -e -n arp dst host 192.168.15.19`
    ```
    19:54:40.958002 40:8d:5c:2a:8a:89 > 40:8d:5c:2c:20:e1, ethertype ARP (0x0806), length 60: Request who-has 192.168.15.19 tell 192.168.15.13, length 46
    19:55:27.110065 00:e0:b1:92:4e:ec > ff:ff:ff:ff:ff:ff, ethertype ARP (0x0806), length 60: Request who-has 192.168.15.19 tell 192.168.15.1, length 46
    19:55:32.110836 40:8d:5c:2a:8a:89 > 40:8d:5c:2c:20:e1, ethertype ARP (0x0806), length 60: Request who-has 192.168.15.19 tell 192.168.15.13, length 46
    19:55:32.118883 40:8d:5c:27:fc:92 > 40:8d:5c:2c:20:e1, ethertype ARP (0x0806), length 60: Request who-has 192.168.15.19 tell 192.168.15.11, length 46
    19:55:37.133253 40:8d:5c:27:fc:92 > 40:8d:5c:2c:20:e1, ethertype ARP (0x0806), length 60: Reply 192.168.15.11 is-at 40:8d:5c:27:fc:92, length 46
    ```

    `tcpdump -e -n arp dst host 192.168.15.19`
    ```
    19:57:24.173088 40:8d:5c:2c:20:e1 > 00:e0:b1:92:4e:ec, ethertype ARP (0x0806), length 42: Request who-has 192.168.15.1 tell 192.168.15.19, length 28
    19:57:29.175949 40:8d:5c:2c:20:e1 > 40:8d:5c:27:fc:92, ethertype ARP (0x0806), length 42: Reply 192.168.15.19 is-at 40:8d:5c:2c:20:e1, length 28
    19:57:34.189094 40:8d:5c:2c:20:e1 > 40:8d:5c:27:fc:92, ethertype ARP (0x0806), length 42: Request who-has 192.168.15.11 tell 192.168.15.19, length 28
    ```

6) Datagrama de ejemplo:

    ```
    20:02:49.197850 00:e0:b1:92:4e:ec > 40:8d:5c:2c:20:e1, ethertype ARP (0x0806), length 60: Reply 192.168.15.1 is-at 00:e0:b1:92:4e:ec, length 46
        0x0000:  0001 0800 0604 0002 00e0 b192 4eec c0a8
        0x0010:  0f01 408d 5c2c 20e1 c0a8 0f13 0000 0000
        0x0020:  0000 0000 0000 0000 0000 0000 0000
    ```

    - Tipo de hardware: `0x0001` -> Ethernet
    - Tipo de protocolo: `0x0800` -> IPv4
    - Long. dir. hardware: `0x06` -> 6 bytes para ethernet
    - Long. dir. logica: `0x04` -> 4 bytes para IPv4
    - Direcciones fisicas (sender): `00e0 b192 4eec = 00:e0:b1:92:4e:ec`
    - Direcciones logicas (sender): `c0a8 0f01 = 192.168.15.1`
    - Direcciones fisicas (target): `408d 5c2c 20e1 = 40:8d:5c:2c:20:e1`
    - Direcciones logicas (target): `c0a8 0f13 = 192.168.15.19`

Protocolo IP e ICMP
-------------------

7) Datagrama analizado x `tcpdump -c 5 -nex icmp and host 192.168.15.19`:

    ```
    21:14:49.301773 40:8d:5c:2a:8a:89 > 40:8d:5c:2c:20:e1, ethertype IPv4 (0x0800), length 98: 192.168.15.13 > 192.168.15.19: ICMP echo request, id 1919, seq 1, length 64
        0x0000:  4500 0054 6587 4000 4001 35b1 c0a8 0f0d
        0x0010:  c0a8 0f13 0800 8992 077f 0001 788f b059
        0x0020:  0000 0000 7031 0f00 0000 0000 1011 1213
        0x0030:  1415 1617 1819 1a1b 1c1d 1e1f 2021 2223
        0x0040:  2425 2627 2829 2a2b 2c2d 2e2f 3031 3233
        0x0050:  3435 3637
    ```

    - Header IP: `4500 0054 6587 4000 4001 35b1 c0a8 0f0d c0a8 0f13` por `0x4500` 5 palabras de 32 bits
    - ICMP: `0800 8992 077f 0001 788f b059` (3 palabras de 32 bits)

    *Analisis datagrama IP*:

    ```
        0x0000:  4500 0054 6587 4000 4001 35b1 c0a8 0f0d
        0x0010:  c0a8 0f13
    ```

    - Version: `0x4` -> IPv4
    - Longitud del encabezamiento: `0x5` -> 20 bytes
    - Tipo de servicio: `0x00` -> de rutina
    - Longitud total: `0x0054` -> bytes
    - Longitud de datos: `0x0054 - 0x05` -> 64 bytes
    - Identificacion: `0x6587`
    - Banderas: `0x04` -> tomo los primeros 3 bits y dan `010` no divisible y fragmento intermedio
        - Reserved: 0
        - Disable fragmentation: 1
        - More fragments: 0
    - Desplazamiento de fragmento: `0x4000` -> todo menos el flag `todo 0` indica posicion, es 0 xq no hay fragmentacion
    - Tiempo de vida: `0x40` -> 64 enrutamientos
    - Protocolo: `0x01` -> ICMP
    - Checksum: `0x35b1`
    - Direccion IP de origen: `0xc0a8 0f0d` -> `192.168.15.13`
    - Direccion IP de destino: `0xc0a8 0f13` -> `192.168.15.19`
    - No hay opciones.

    *Analisis datagrama ICMP*:

    ```
    0x0010: ---- ---- 0800 8992 077f 0001 788f b059
    ```

    - Tipo: `0x08` -> ping o echo request
    - Codigo: `0x00` -> ping siempre tiene 0
    - Checksum: `0x8992` -> suma verificadora
    - Identificador: `077f` -> asociar echo req con echo rep
    - Numero de secuencia: `0x0001` -> asociar echo req con echo rep

8) Salida `tcpdump -c 10 -nex icmp[0]=8 and host 192.168.15.1`:

    ```
    tcpdump: verbose output suppressed, use -v or -vv for full protocol decode
    listening on eth0, link-type EN10MB (Ethernet), capture size 262144 bytes
    19:26:08.941613 40:8d:5c:2c:20:e1 > 00:e0:b1:92:4e:ec, ethertype IPv4 (0x0800), length 98: 192.168.15.19 > 192.168.15.1: ICMP echo request, id 1960, seq 1, length 64
        0x0000:  4500 0054 f3c5 4000 4001 a77e c0a8 0f13
        0x0010:  c0a8 0f01 0800 c61b 07a8 0001 80b0 b959
        0x0020:  0000 0000 235e 0e00 0000 0000 1011 1213
        0x0030:  1415 1617 1819 1a1b 1c1d 1e1f 2021 2223
        0x0040:  2425 2627 2829 2a2b 2c2d 2e2f 3031 3233
        0x0050:  3435 3637

    ```

9) El comando seria `tcpdump -c 10 -nex icmp[0]=0 and host 192.168.15.1` donde cambia el icmp[0] que indica el tipo de trama.

    ```
    tcpdump: verbose output suppressed, use -v or -vv for full protocol decode
    listening on eth0, link-type EN10MB (Ethernet), capture size 262144 bytes
    19:28:56.746902 00:e0:b1:92:4e:ec > 40:8d:5c:2c:20:e1, ethertype IPv4 (0x0800), length 98: 192.168.15.1 > 192.168.15.19: ICMP echo reply, id 1966, seq 1, length 64
        0x0000:  4500 0054 0356 4000 4001 97ee c0a8 0f01
        0x0010:  c0a8 0f13 0000 fc10 07ae 0001 28b1 b959
        0x0020:  0000 0000 5062 0b00 0000 0000 1011 1213
        0x0030:  1415 1617 1819 1a1b 1c1d 1e1f 2021 2223
        0x0040:  2425 2627 2829 2a2b 2c2d 2e2f 3031 3233
        0x0050:  3435 3637

    ```

Datagrama UDP
-------------

10) Comando `tcpdump -nexs128 udp and src host 192.168.15.19`:

    ```
    19:35:25.863658 40:8d:5c:2c:20:e1 > 00:e0:b1:92:4e:ec, ethertype IPv4 (0x0800), length 75: 192.168.15.19.49719 > 192.168.3.250.53: 38460+ A? ADASDHF.ADA.asd. (33)
        0x0000:  ---- ---- ---- ---- ---- ---- ---- ----
        0x0010:  ---- ---- c237 0035 0029 6a3f 963c 0100
        0x0020:  0001 0000 0000 0000 0741 4441 5344 4846
        0x0030:  0341 4441 0361 7364 0000 0100 01
    ```

    - Puerto UDP origen: `0xc237` -> 49719
    - Puerto UDP destino: `0x0035` -> 53
    - Longitud mensaje UDP: `0x0029` -> 41
    - Checksum: `0x6a3f` -> suma verificadora

    Dentro del campo datos se puede observar la direccion y donde irian los puntos, existe un numero que indica la cantidad de caracteres hasta el proximo punto.

Segmentos TCP
-------------

11) Los segmentos que analizaremos son:

    ```
    0x0000:  ---- ---- ---- ---- ---- ---- ---- ----
	0x0010:  ---- ---- 0016 c035 82df 9391 95c9 eed9
	0x0020:  8018 0126 eab0 0000 0101 080a 0010 1049
	0x0030:  36d5 7118 7b8b 699d 9ada 4760 de85 1d33
	0x0040:  f987 5d44 6f4c 1496 9271 f299 d7ef fc6f
	0x0050:  742a 6467 78f5 1190 501b cf7b 34f3 953a
	0x0060:  6e8b 4e73 48de ea53 bcc4 5a8d 093a cae6
	0x0070:  8f97 fb47 9434 c140 26de ed81 bf55 2cb1
	0x0080:  6ca8 fde7 3d75 1214 d48f de38 6781 676d
	0x0090:  8c65 96aa 918b 61d7 0d00 7b30 0509 e78c
	0x00a0:  b232 1ba2 e105 f431 6a06 d9ce 231d b2e7
	0x00b0:  07d8 363c 62a9 50dd d420 4ee8 d6a1 83a5
	0x00c0:  2aa1 3a69 fbcf 5e5d 94c0 db26 91ce 58d9
	0x00d0:  1ae2 7f0f a25c e910 138e 4c5f e45c 08e2
	0x00e0:  8c9f 77f0 a452 a111 983a 0a8b 7415 f678

	0x0000:  ---- ---- ---- ---- ---- ---- ---- ----
	0x0010:  ---- ---- c035 0016 95c9 eed9 82df 944d
	0x0020:  8010 0ffa b1aa 0000 0101 080a 36d5 723d
	0x0030:  0010 1049

	0x0000:  ---- ---- ---- ---- ---- ---- ---- ----
	0x0010:  ---- ---- b174 0c38 0e3b 4413 5e0a 813e
	0x0020:  8010 00fb 4147 0000 0101 080a 0010 1328
	0x0030:  098b 9412
    ```

    Primero:
        - Puerto TCP de origen: 22
        - Puerto TCP de destino: 49205
        - Numero de secuencia: `82df 9391`
        - Numero de reconocimiento: `95c9 eed9`

    Segundo:
        - Puerto TCP de origen: 49205
        - Puerto TCP de destino: 22
        - Numero de secuencia: `95c9 eed9`
        - Numero de reconocimiento: `82df 944d`